S011000070726F6A656B7430312E73726563B3
S113000045C0000060C000005EC000005CC000008D
S11300105AC0000058C0000056C0000054C0000080
S113002052C0000050C000004EC000004CC0000090
S11300304AC0000048C0000046C0000044C00000A0
S113004042C0000040C000003EC000003CC00000B0
S11300503AC0000038C0000036C0000034C00000C0
S113006032C0000030C000002EC000002CC00000D0
S11300702AC0000028C0000026C0000024C00000E0
S113008022C0000020C000001EC0000011241FBEBA
S1130090CFEFD0E1DEBFCDBF11E0A0E0B1E0E0E3FF
S11300A0F3E000E00BBF02C007900D92A631B10748
S11300B0D9F721E0A6E1B1E001C01D92AA31B2074F
S11300C0E1F79DD033C19CCF80FF02C0949A01C058
S11300D0949881FF02C0959A01C0959882FF02C04E
S11300E0969A01C0969883FF02C0979A08959798AC
S11300F0089580B382958170859982608699846021
S1130100879988600895CF93DF938C988D988E9803
S11301108F98D99ADA9AEDDF90E1899FE001112452
S1130120DA98DA9AE6DFDA988C2BDF91CF9108958A
S1130130D898E9CF0895CF93C82F8C9A8D9A8E9A28
S11301408F9AD998DA9A82958F70BEDFDA98DA9A04
S11301508C2FBADFDA98ECDF8823ECF3CF91089583
S1130160D898E9CF0895D89AE6CF0895CF93DF932E
S1130170EC018881882329F02196F5DF899181118A
S1130180FCCFDF91CF91089590E4699F800D1124F5
S11301908068E6CF0895CF938C9A8D9A8E9A8F9A21
S11301A0D29AD09AD19A85EA9EE00197F1F700C0DD
S11301B00000D898DA98D998C3E0DA9A83E084DF0B
S11301C0DA9881EE94E00197F1F700C00000C15085
S11301D0A1F7DA9A82E078DFDA9889EF90E0019764
S11301E0F1F700C0000088E2BBDF88E0B9DF81E0FE
S11301F0B7DF86E0B5DF8CE0B3DFCF910895CF930E
S1130200DF9300D000D0CDB7DEB78CE382B983B9D9
S11302108DEF87BB88BB8FEF81BB82BB8ABB8BBB57
S113022086E886B980E487B9C39AC29A1B9A1C9A55
S1130230B2DF80E091E09ADF61E080E0A5DF8CE04E
S113024091E094DF87E592E00197F1F700C00000A8
S11302501A9A1D9A87E592E00197F1F700C0000011
S11302601A981D9880911801909119010196843073
S1130270910529F090931901809318010EC01092F2
S1130280190110921801369A3699FECF17B884B125
S113029095B190931701809316014AE0BE016F5FF8
S11302A07F4F80911601909117010DD061E086E097
S11302B06BDF81E191E05ADF61E086E065DFCE012A
S11302C0019654DFBFCFBB274A3031F4992322F47F
S11302D0BDE2909581959F4F01C0BB27FB01552737
S11302E0AA27880F991FAA1FA41710F0A41B83958F
S11302F05051B9F7A05DAA3308F0A95DA193009706
S113030079F7B111B1931192CB0100C0DC01FC016A
S1130310672F71917723E1F7329704C07C916D9335
S113032070836291AE17BF07C8F30895F894FFCFA6
S113033048656C6C6F20576F726C640074657374DD
S109034000202020200033
S9030000FC
