:10000000C2C00000DDC00000DBC00000D9C000009D
:10001000D7C00000D5C00000D3C00000D1C0000090
:10002000CFC00000CDC00000DDC30000C9C000008B
:10003000EEC30000C5C00000C3C00000C1C0000086
:10004000A8C30000BDC00000BBC00000B9C00000D4
:10005000B7C00000B5C00000B3C00000B1C00000D0
:10006000AFC00000ADC00000ABC00000A9C00000E0
:10007000A7C00000A5C00000A3C00000A1C00000F0
:100080009FC000009DC000009BC0000000407A108F
:10009000F35A00A0724E18090010A5D4E80000E839
:1000A0007648170000E40B54020000CA9A3B000097
:1000B00000E1F505000080969800000040420F0026
:1000C0000000A08601000000102700000000E803E7
:1000D000000000006400000000000A0000000000B2
:1000E0000100000000002C76D888DC674F0823DF71
:1000F000C1DFAE59E1B1B796E5E3E453C63AE65144
:10010000997696E8E6C28426EB898C9B62ED407C6A
:100110006FFCEFBC9C9F40F2BAA56FA5F490055A06
:100120002AF75C936B6CF9676DC11BFCE0E40D472B
:10013000FEF520E6B500D0ED902E0300943577054E
:100140000080841E080000204E0A000000C80C3306
:100150003333330F986E12831141EF8D2114893B95
:10016000E65516CFFEE6DB18D1844B381BF77C1D15
:10017000901DA4BBE424203284725E228100C9F168
:1001800024ECA1E53D2711241FBECFEFD0E1DEBF57
:10019000CDBF11E0A0E0B1E0E4E5F1E100E00BBF8C
:1001A00002C007900D92A833B107D9F721E0A8E368
:1001B000B1E001C01D92A03AB207E1F716D1C8C75D
:1001C0001FCF80FF02C0949A01C0949881FF02C0A3
:1001D000959A01C0959882FF02C0969A01C09698A0
:1001E00083FF02C0979A08959798089580B38295E7
:1001F0008170859982608699846087998860089566
:10020000CF93DF938C988D988E988F98D99ADA9A9D
:10021000EDDF90E1899FE0011124DA98DA9AE6DFB8
:10022000DA988C2BDF91CF910895D898E9CF089573
:10023000CF93C82F8C9A8D9A8E9A8F9AD998DA9AE2
:1002400082958F70BEDFDA98DA9A8C2FBADFDA984F
:10025000ECDF8823ECF3CF910895D898E9CF089587
:10026000D89AE6CF0895CF93DF93EC018881882355
:1002700029F02196F5DF89918111FCCFDF91CF9193
:10028000089590E4699F800D11248068E6CF089559
:10029000CF938C9A8D9A8E9A8F9AD29AD09AD19A1D
:1002A00085EA9EE00197F1F700C00000D898DA983F
:1002B000D998C3E0DA9A83E084DFDA9881EE94E09B
:1002C0000197F1F700C00000C150A1F7DA9A82E06F
:1002D00078DFDA9889EF90E00197F1F700C000002D
:1002E00088E2BBDF88E0B9DF81E0B7DF86E0B5DF19
:1002F0008CE0B3DFCF9108950F931F93CF9361E00C
:1003000088E0BFDF00E010E080917E01CDEC8C9FA3
:10031000812D11248695869586954AE0B80190E056
:100320007FD4C801A0DF80917E018C9F912D112484
:10033000969596959695990F292F220F220F920F39
:10034000891B4AE0B80190E06BD4C8018CDF8FE0D4
:1003500091E089DF80917D018C9F812D112486950C
:10036000869586954AE0B80190E05AD4C8017BDFB3
:1003700080917D018C9F912D11249695969596954F
:10038000990F292F220F220F920F891B4AE0B801E3
:1003900090E046D4C80167DF8FE091E064DF809190
:1003A0007C018C9F812D11248695869586954AE047
:1003B000B80190E035D4C80156DF80917C018C9F54
:1003C000C12D1124C695C695C695CC0F9C2F990FAB
:1003D000990FC90F8C1B4AE0B80190E021D4C801E5
:1003E00042DFCF911F910F9108958CE382B983B9B9
:1003F0008DEF87BB88BB82E080936400E5E6F0E088
:1004000080838FE784BB85BB8AEF8093620088E19D
:10041000808387E886B917B887B7816587BF83B7B8
:10042000866083BF80910E0182BF85B5836085BDE4
:1004300080910D0184BD8CE08EBD8CEE9BE09BBD58
:100440008ABDC398C29A1B981C9AA99AA89AAB987D
:10045000AC98AD98AA981CDF60E080E012DF81E1E3
:1004600091E001DF61E088E00CDF80E091E0FBDEFD
:1004700078940F2EF5E6EF2EF12CF02DC3E6D0E0A8
:100480000F2EFCE5AF2EF1E0BF2EF02D0F2EFBE07E
:100490002F2E312CF02D0F2EFCE3CF2EF1E0DF2E8E
:1004A000F02D88248A94912C6894772471F80F2E6B
:1004B000FFE94F2EF4E25F2EF02D0E9904C0D70114
:1004C0008C9182608C930E9B04C0F70180818D7F9C
:1004D0008083888183FD0AC080917E018F5F88318F
:1004E00018F480937E0102C010927E01888184FD01
:1004F0000AC080917D018F5F8C3318F480937D0159
:1005000002C010927D01809109018823C1F017B8C3
:100510003699FECF369A84B195B19093800180933D
:100520007F0117B877B83699FECF369A84B195B166
:1005300090938E0180938D0117B8109209018091DC
:100540000A01882309F4E1C020913A0130913B016E
:100550002F5F3F4F30933B0120933A0180917F0101
:1005600090918001A901440F551FFA01E45AFE4FF2
:100570009183808380918D0190918E01FA01E45CDA
:10058000FE4F918380832B30310509F0BCC0D5012B
:1005900012962D913C91139714968D919C911597DD
:1005A000280F391F16968D919C911797280F391F88
:1005B00018968D919C911997280F391F1A968D9135
:1005C0009C911B97280F391F1C968D919C911D970C
:1005D000280F391F1E968D919C911F97280F391F48
:1005E00050968D919C915197280F391F52968D915D
:1005F0009C915397280F391F54968D919C91559734
:10060000280F391F56968D919C915797820F931FF3
:10061000B101C0D2FB017093930160939201D601A6
:1006200012962D913C91139714968D919C9115974C
:10063000280F391F16968D919C911797280F391FF7
:1006400018968D919C911997280F391F1A968D91A4
:100650009C911B97280F391F1C968D919C911D977B
:10066000280F391F1E968D919C911F97280F391FB7
:1006700050968D919C915197280F391F52968D91CC
:100680009C915397280F391F54968D919C915597A3
:10069000280F391F56968D919C915797820F931F63
:1006A000B10178D29B017093900160938F01CF01CB
:1006B00065E070E06FD260930D0180910D01B4018F
:1006C000681B7109C20166D270938C0160938B0123
:1006D000B901330F880B990B6ED125E639E142E65B
:1006E0005CE3F5D129EB3CEF47E05DE3FDD060939F
:1006F00094017093950180939601909397011092C5
:100700003B0110923A0110920A0180910B0188235B
:1007100041F160E080E0B5DD82E291E0A4DD4AE0F5
:1007200068E971E080918B0190918C0179D260E051
:10073000872DA7DD88E991E096DD609194017091A5
:100740009501809196019091970103E811E021E0D5
:1007500043E047D260E08BE094DDC80184DD109275
:100760000B0180910C01882309F4A7CE80918B01A5
:1007700090918C01869744F41B9A60E082E081DDC1
:1007800083E391E070DD01C01B98B6DD10920C018F
:100790008BCE1F920F920FB60F9211248F939F93BF
:1007A00080910E0182BF93B184E0892783B9809143
:1007B00038019091390101968436910529F0909382
:1007C00039018093380107C0109239011092380125
:1007D00081E0809309019F918F910F900FBE0F9040
:1007E0001F9018951F920F920FB60F9211248F939E
:1007F0009F9380910D0184BD93B180E2892783B9D5
:100800009F918F910F900FBE0F901F9018951F9280
:100810000F920FB60F9211248F939F93AF93BF93B4
:10082000809181019091820101968A30910529F091
:10083000909382018093810127C0109282011092CF
:10084000810180917C018F5F8C3319F080937C0152
:1008500007C010927C0180917D018F5F80937D01A4
:1008600080917D018C3339F410927D0180917E015D
:100870008F5F80937E0180917E01883110F010920D
:100880007E0181E080930C0180919C0190919D01FB
:10089000A0919E01B0919F010196A11DB11D8431CF
:1008A0009105A105B10549F080939C0190939D01AC
:1008B000A0939E01B0939F010BC010929C011092D7
:1008C0009D0110929E0110929F0181E080930B0187
:1008D00081E080930A01BF91AF919F918F910F901A
:1008E0000FBE0F901F9018955058BB27AA270ED007
:1008F000B4C0A5D030F0AAD020F031F49F3F11F45D
:100900001EF49AC00EF4E095E7FB90C0E92FB6D034
:1009100080F3BA17620773078407950718F071F41C
:100920009EF5CEC00EF4E0950B2EBA2FA02D0B0134
:10093000B90190010C01CA01A0011124FF27591B24
:1009400099F0593F50F4503E68F11A16F040A22F2A
:10095000232F342F4427585FF3CF4695379527959B
:10096000A795F0405395C9F77EF41F16BA0B620B9A
:10097000730B840BBAF09150A1F0FF0FBB1F661FE1
:10098000771F881FC2F70EC0BA0F621F731F841F24
:1009900048F4879577956795B795F7959E3F08F04A
:1009A000B3CF9395880F08F09927EE0F9795879509
:1009B0000895E89409C097FB3EF490958095709552
:1009C00061957F4F8F4F9F4F9923A9F0F92F96E99B
:1009D000BB279395F695879577956795B795F11110
:1009E000F8CFFAF4BB0F11F460FF1BC06F5F7F4FAD
:1009F0008F4F9F4F16C0882311F096E911C07723BF
:100A000021F09EE8872F762F05C0662371F096E8C7
:100A1000862F70E060E02AF09A95660F771F881F96
:100A2000DAF7880F9695879597F9089597F99F6754
:100A300080E870E060E008959FEF80EC0895002466
:100A40000A941616170618060906089500240A9433
:100A500012161306140605060895092E0394000CB9
:100A600011F4882352F0BB0F40F4BF2B11F460FF48
:100A700004C06F5F7F4F8F4F9F4F089557FD905871
:100A8000440F551F59F05F3F71F04795880F97FB52
:100A9000991F61F09F3F79F087950895121613060C
:100AA0001406551FF2CF4695F1DF08C0161617063B
:100AB0001806991FF1CF8695710561050894089570
:100AC000E894BB2766277727CB0197F908950BD0C9
:100AD000C4CFB5DF28F0BADF18F0952309F0A6CF10
:100AE000ABCF1124EECFCADFA0F3959FD1F3950FC2
:100AF00050E0551F629FF001729FBB27F00DB11DA2
:100B0000639FAA27F00DB11DAA1F649F6627B00D31
:100B1000A11D661F829F2227B00DA11D621F739F1A
:100B2000B00DA11D621F839FA00D611D221F749F28
:100B30003327A00D611D231F849F600D211D822F6F
:100B4000762F6A2F11249F5750408AF0E1F08823B6
:100B50004AF0EE0FFF1FBB1F661F771F881F9150C3
:100B60005040A9F79E3F510570F060CFAACF5F3F7C
:100B7000ECF3983EDCF3869577956795B795F795F6
:100B8000E7959F5FC1F7FE2B880F911D969587957E
:100B900097F9089597FB072E16F4009406D077FD79
:100BA00008D00BD007FC05D03EF4909581959F4F5F
:100BB0000895709561957F4F0895AA1BBB1B51E165
:100BC00007C0AA1FBB1FA617B70710F0A61BB70BBD
:100BD000881F991F5A95A9F780959095BC01CD0162
:100BE0000895EF920F931F93CF93DF93E80147FD92
:100BF00002C034E001C034E1E42F440FFF0BF7FFE3
:100C000003C0F195E195F109E32E022F2E2FAE01DD
:100C10002AD0CE01DF91CF911F910F91EF900895CF
:100C2000BB274A3031F4992322F4BDE29095819597
:100C30009F4F01C0BB27FB015527AA27880F991F8B
:100C4000AA1FA41710F0A41B83955051B9F7A05DFB
:100C5000AA3308F0A95DA193009779F7B111B19378
:100C60001192CB0165C24F925F926F927F929F92D9
:100C7000AF92BF92CF92DF92EF92FF920F931F93AA
:100C8000CF93DF93CDB7DEB729970FB6F894DEBFC9
:100C90000FBECDBF6A01122FB02E2BE3201720F01C
:100CA000FF24F394F00E02C0BCE3FB2E0F2D27E0CF
:100CB000AE014F5F5F4F64D1AC018981982F99706D
:100CC000913031F0E1FC06C0E0FE06C090E205C0C4
:100CD0009DE203C09BE201C090E0EE2DE07183FF36
:100CE0003CC0911102C083E001C084E0811718F478
:100CF000212F281B01C020E0E1110BC0F601822F3B
:100D000030E2882319F031938150FBCFC20ED11C01
:100D100020E0992329F0D6019C93F60131966F01CA
:100D2000C6010396E2FE0AC03EE4D6013C9341E4CC
:100D300011964C93119712963C9306C03EE6F6012D
:100D4000308341E641833283FC01322F40E233237A
:100D500009F442C041933150FACF82FF44C091114F
:100D600002C083E001C084E0811718F4212F281B02
:100D700001C020E0E1110BC0F601822F30E2882390
:100D800019F031938150FBCFC20ED11C20E0992382
:100D900029F0D6019C93F60131966F01C6010396A6
:100DA000E2FE0BC039E4D6013C933EE411963C933D
:100DB000119736E412963C9307C039E6F60130836A
:100DC0003EE6318336E63283FC01322F40E23323A4
:100DD00019F041933150FBCFFC01E20FF11D10825D
:100DE0008EEF9FEFB7C0F1E0911101C0F0E06F2FDF
:100DF00070E01416150624F49A012F5F3F4F02C0CD
:100E000021E030E0260F371FBB2029F06B2D70E06A
:100E10006F5F7F4F02C060E070E0260F371F612FC9
:100E200070E0261737071CF4121B212F01C020E0A9
:100E30003E2D387159F4D601322F60E2332319F078
:100E40006D933150FBCFC20ED11C20E0FF2331F057
:100E5000D6019C93B6016F5F7F4F6B01E1110BC010
:100E6000F601922F30E3992319F031939150FBCF83
:100E7000C20ED11C20E09F2D940F3A81782F707103
:100E8000A72E84FF03C0313309F49150191624F4BE
:100E9000993018F098E001C091E0E42F852F57FFBA
:100EA00002C0E0E080E06E2F782FE0E0F0E0AEE2FC
:100EB0009A2E3A01691A71082A01461A570A0B2D0F
:100EC00010E01195019511096F3F8FEF780729F414
:100ED000D6019C92C60101966C014617570784F013
:100EE000661677066CF47F01E40CF51CA1E0B0E017
:100EF000AC0FBD1FEA0EFB1ED7011196BC9002C0BD
:100F000090E3B92E615071093196C60101967C01BA
:100F10006017710724F0D601BC926C01D5CF64171D
:100F2000750741F4363320F4353321F4A11002C0A3
:100F300081E3B82EF601B082F701822F90E2882378
:100F400019F091938150FBCFF701E20FF11D108250
:100F500080E090E029960FB6F894DEBF0FBECDBFBB
:100F6000DF91CF911F910F91FF90EF90DF90CF9085
:100F7000BF90AF909F907F906F905F904F9008953B
:100F8000283008F027E03327DA01990F311D87FD5B
:100F9000916000966105710539F432602E5F3D93D2
:100FA00030E32A95E1F708959F3F30F080387105CE
:100FB000610509F03C5F3C5F3D93913008F080682B
:100FC000911DDF93CF931F930F93FF92EF92192FF1
:100FD000987F9695E92F96959695E90FFF27EA5108
:100FE000FF4F99273327EE24FF24A701E70105903F
:100FF0000894079428F4360FE71EF81E491F511D68
:10100000660F771F881F991F0694A1F70590079414
:1010100028F4E70EF81E491F561FC11D770F881FC1
:10102000991F661F0694A1F70590079428F4F80EFF
:10103000491F561FC71FD11D880F991F661F771F95
:101040000694A1F70590079420F4490F561FC71F77
:10105000D81F990F661F771F881F0694A9F78491E0
:101060001095177041F0D695C79557954795F79409
:10107000E7941A95C1F7ECE8F0E0689415901591A3
:1010800035916591959105907FE27395E118F10A8C
:10109000430B560BC90BD009C0F7E10CF11E431FDF
:1010A000561FC91FD01D7EF4703311F48A95E6CF08
:1010B000E894015030F0080F0AF40027021708F4F2
:1010C000202F2395022F7A3328F079E37D932A95F8
:1010D000E9F710C07D932A9589F606949795679550
:1010E000379517951794E118F10A430B560BC90B66
:1010F000D00998F023957E9173957A3308F070E3C8
:101100007C932013B8F77E9170617D9330F08395C6
:1011100071E37D9370E32A95E1F71124EF90FF903E
:101120000F911F91CF91DF91992787FD9095089599
:10113000DC01FC01672F71917723E1F7329704C03E
:101140007C916D9370836291AE17BF07C8F30895C9
:04115000F894FFCF41
:1011540030303A30303A30300001010101C8FA3AF7
:1011640000507330303072706D7C416B30302E30F3
:101174005600507330305F72706D7C416B30302E8E
:0811840030560030303000004D
:00000001FF
