:1000000045C0000060C000005EC000005CC0000091
:100010005AC0000058C0000056C0000054C0000084
:1000200052C0000050C0000073C100004CC000006E
:100030004AC0000048C0000046C0000044C00000A4
:1000400044C1000040C000003EC000003CC00000B1
:100050003AC0000038C0000036C0000034C00000C4
:1000600032C0000030C000002EC000002CC00000D4
:100070002AC0000028C0000026C0000024C00000E4
:1000800022C0000020C000001EC0000011241FBEBE
:10009000CFEFD0E1DEBFCDBF11E0A0E0B1E0E4EAF8
:1000A000F3E000E00BBF02C007900D92AA30B10749
:1000B000D9F721E0AAE0B1E001C01D92A631B20754
:1000C000E1F79DD06DC19CCF80FF02C0949A01C022
:1000D000949881FF02C0959A01C0959882FF02C052
:1000E000969A01C0969883FF02C0979A08959798B0
:1000F000089580B382958170859982608699846025
:10010000879988600895CF93DF938C988D988E9807
:100110008F98D99ADA9AEDDF90E1899FE001112456
:10012000DA98DA9AE6DFDA988C2BDF91CF9108958E
:10013000D898E9CF0895CF93C82F8C9A8D9A8E9A2C
:100140008F9AD998DA9A82958F70BEDFDA98DA9A08
:100150008C2FBADFDA98ECDF8823ECF3CF91089587
:10016000D898E9CF0895D89AE6CF0895CF93DF9332
:10017000EC018881882329F02196F5DF899181118E
:10018000FCCFDF91CF91089590E4699F800D1124F9
:100190008068E6CF0895CF938C9A8D9A8E9A8F9A25
:1001A000D29AD09AD19A85EA9EE00197F1F700C0E1
:1001B0000000D898DA98D998C3E0DA9A83E084DF0F
:1001C000DA9881EE94E00197F1F700C00000C15089
:1001D000A1F7DA9A82E078DFDA9889EF90E0019768
:1001E000F1F700C0000088E2BBDF88E0B9DF81E002
:1001F000B7DF86E0B5DF8CE0B3DFCF9108958CE305
:1002000082B983B98DEF87BB88BB82E0809364009D
:100210008093650083E084BB85BB86E886B980E473
:1002200087B987B7816487BF83B7866083BF8091B2
:10023000130182BF85B5836085BD80910E0184BDA9
:100240007894C398C29A1B981C9AA99AA89AA3DF7B
:1002500061E080E099DF80E091E088DFD4E6C5E0EE
:1002600080911401909115010196883E23E0920738
:1002700029F090931501809314010EC0109215017E
:1002800010921401369A3699FECF17B884B195B101
:1002900090930B0180930A014AE06FE071E0809136
:1002A0000A0190910B0149D061E086E06DDF84E0A6
:1002B00091E05CDF61E086E067DF8FE091E056DF90
:1002C000D0930E01C0931301CBCF1F920F920FB6A4
:1002D0000F9211240BB60F928F939F93EF93FF937E
:1002E0008091130182BFE5E6F0E0908182E08927EA
:1002F000808393B184E0892783B9FF91EF919F9127
:100300008F910F900BBE0F900FBE0F901F901895FE
:100310001F920F920FB60F9211248F939F9380918B
:100320000E0184BD93B180E2892783B99F918F919B
:100330000F900FBE0F901F901895BB274A3031F4D5
:10034000992322F4BDE2909581959F4F01C0BB2770
:10035000FB015527AA27880F991FAA1FA41710F081
:10036000A41B83955051B9F7A05DAA3308F0A95D8D
:10037000A193009779F7B111B1931192CB0100C00D
:10038000DC01FC01672F71917723E1F7329704C0FC
:100390007C916D9370836291AE17BF07C8F3089587
:0403A000F894FFCFFF
:0A03A4004144430020202020000007
:00000001FF
