S011000070726F6A656B7430312E73726563B3
S113000045C0000058C0000056C0000054C00000A5
S113001052C0000050C000004EC000004CC00000A0
S11300204AC0000048C0000046C0000044C00000B0
S113003042C0000040C000003EC000003CC00000C0
S11300403AC0000038C0000036C0000034C00000D0
S113005032C0000030C000002EC000002CC00000E0
S11300602AC0000028C0000026C0000024C00000F0
S113007022C0000020C000001EC000001CC0000000
S11300801AC0000018C0000016C0000011241FBED2
S1130090CFEFD0E1DEBFCDBF11E0A0E0B1E0EAE0F8
S11300A0F2E000E00BBF02C007900D92AC30B10744
S11300B0D9F792D0A8C0A4CF80FF02C0949A01C0FF
S11300C0949881FF02C0959A01C0959882FF02C05E
S11300D0969A01C0969883FF02C0979A08959798BC
S11300E00895CF93C82FDA9A82958F70E5DFDA9856
S11300F0DA9A8C2FE1DFDA982FE986E891E0215033
S113010080409040E1F700C00000CF910895D89856
S1130110E8CF0895D89AE5CF0895CF93DF93EC0103
S11301208881882329F02196F5DF89918111FCCFFC
S1130130DF91CF91089590E4699F800D1124806828
S1130140E6CF089581E0E3DF83EF91E00197F1F7D3
S113015000C00000089582E0DADF83EF91E00197A8
S1130160F1F700C000000895CF938C9A8D9A8E9A6F
S11301708F9AD29AD09A85EA9EE00197F1F700C04F
S11301800000D898DA98C3E0DA9A83E095DFDA9829
S113019081EE94E00197F1F700C00000C150A1F78F
S11301A0DA9A82E089DFDA9889EF90E00197F1F733
S11301B000C0000088E2ABDF88E0A9DF81E0A7DFB0
S11301C083EF91E00197F1F700C0000086E09FDF24
S11301D08CE09DDFCF9108958CE382B983B98DEFD4
S11301E087BB88BBC39AC29A1B9A1C9ABDDFAADF3D
S11301F0B2DF80E091E091DF61E080E09CDF85E0A8
S10D020091E08BDFFFCFF894FFCFED
S10F020A6C6F7665006C6F766532000046
S9030000FC
